:020000001628C0
:0E0006008312031321088A00200882000800DC
:1000140003208A110A128000840AA00A0319A10A83
:08002400F003031D0A28080087
:10002C00831603138601031789018801303083126C
:10003C00031386008230FC00DD30FD00FD0B24280C
:10004C00FC0B2428000000000608F000F00D7010D6
:10005C00700886008230FC00DD30FD00FD0B34287A
:10006C00FC0B342800000000C0300602031C4A2898
:10007C00813086008230FC00DD30FD00FD0B442811
:10008C00FC0B44280000000081300602031C5A2897
:10009C00033086008230FC00DD30FD00FD0B54285F
:0C00AC00FC0B5428000000002A285B28F0
:04400E00F22F000786
:00000001FF
